{
  "contractName": "Tender",
  "abi": [
    {
      "inputs": [],
      "stateMutability": "nonpayable",
      "type": "constructor"
    },
    {
      "anonymous": false,
      "inputs": [
        {
          "indexed": true,
          "internalType": "uint256",
          "name": "_id",
          "type": "uint256"
        },
        {
          "indexed": true,
          "internalType": "address",
          "name": "_principal",
          "type": "address"
        },
        {
          "indexed": false,
          "internalType": "uint256",
          "name": "_prize",
          "type": "uint256"
        }
      ],
      "name": "AuditCanceled",
      "type": "event"
    },
    {
      "anonymous": false,
      "inputs": [
        {
          "indexed": true,
          "internalType": "address",
          "name": "member",
          "type": "address"
        },
        {
          "indexed": false,
          "internalType": "enum Role",
          "name": "_role",
          "type": "uint8"
        }
      ],
      "name": "MemberLeft",
      "type": "event"
    },
    {
      "anonymous": false,
      "inputs": [
        {
          "indexed": true,
          "internalType": "uint256",
          "name": "_id",
          "type": "uint256"
        },
        {
          "indexed": true,
          "internalType": "address",
          "name": "_principal",
          "type": "address"
        },
        {
          "indexed": false,
          "internalType": "string",
          "name": "_repo",
          "type": "string"
        },
        {
          "indexed": false,
          "internalType": "string",
          "name": "_commitID",
          "type": "string"
        },
        {
          "indexed": false,
          "internalType": "uint256",
          "name": "_days",
          "type": "uint256"
        },
        {
          "indexed": false,
          "internalType": "uint256",
          "name": "_prize",
          "type": "uint256"
        }
      ],
      "name": "NewAudit",
      "type": "event"
    },
    {
      "anonymous": false,
      "inputs": [
        {
          "indexed": true,
          "internalType": "address",
          "name": "member",
          "type": "address"
        },
        {
          "indexed": false,
          "internalType": "enum Role",
          "name": "_role",
          "type": "uint8"
        }
      ],
      "name": "NewMember",
      "type": "event"
    },
    {
      "anonymous": false,
      "inputs": [
        {
          "indexed": false,
          "internalType": "uint256",
          "name": "_minimalWage",
          "type": "uint256"
        }
      ],
      "name": "NewMinimalWage",
      "type": "event"
    },
    {
      "anonymous": false,
      "inputs": [
        {
          "indexed": false,
          "internalType": "uint256",
          "name": "_requiredDeposit",
          "type": "uint256"
        }
      ],
      "name": "NewRequiredDeposit",
      "type": "event"
    },
    {
      "anonymous": false,
      "inputs": [
        {
          "indexed": true,
          "internalType": "address",
          "name": "member",
          "type": "address"
        },
        {
          "indexed": false,
          "internalType": "enum Role",
          "name": "_role",
          "type": "uint8"
        }
      ],
      "name": "NewRole",
      "type": "event"
    },
    {
      "anonymous": false,
      "inputs": [
        {
          "indexed": true,
          "internalType": "address",
          "name": "previousOwner",
          "type": "address"
        },
        {
          "indexed": true,
          "internalType": "address",
          "name": "newOwner",
          "type": "address"
        }
      ],
      "name": "OwnershipTransferred",
      "type": "event"
    },
    {
      "anonymous": false,
      "inputs": [
        {
          "indexed": false,
          "internalType": "address",
          "name": "account",
          "type": "address"
        }
      ],
      "name": "Paused",
      "type": "event"
    },
    {
      "anonymous": false,
      "inputs": [
        {
          "indexed": false,
          "internalType": "address",
          "name": "account",
          "type": "address"
        }
      ],
      "name": "Unpaused",
      "type": "event"
    },
    {
      "inputs": [
        {
          "internalType": "uint256",
          "name": "",
          "type": "uint256"
        }
      ],
      "name": "audits",
      "outputs": [
        {
          "internalType": "uint256",
          "name": "id",
          "type": "uint256"
        },
        {
          "internalType": "string",
          "name": "repository",
          "type": "string"
        },
        {
          "internalType": "string",
          "name": "commitID",
          "type": "string"
        },
        {
          "internalType": "uint256",
          "name": "daysleft",
          "type": "uint256"
        },
        {
          "internalType": "address",
          "name": "principal",
          "type": "address"
        },
        {
          "internalType": "enum Status",
          "name": "status",
          "type": "uint8"
        },
        {
          "internalType": "uint256",
          "name": "prize",
          "type": "uint256"
        }
      ],
      "stateMutability": "view",
      "type": "function",
      "constant": true
    },
    {
      "inputs": [],
      "name": "minimalWage",
      "outputs": [
        {
          "internalType": "uint256",
          "name": "",
          "type": "uint256"
        }
      ],
      "stateMutability": "view",
      "type": "function",
      "constant": true
    },
    {
      "inputs": [],
      "name": "owner",
      "outputs": [
        {
          "internalType": "address",
          "name": "",
          "type": "address"
        }
      ],
      "stateMutability": "view",
      "type": "function",
      "constant": true
    },
    {
      "inputs": [],
      "name": "paused",
      "outputs": [
        {
          "internalType": "bool",
          "name": "",
          "type": "bool"
        }
      ],
      "stateMutability": "view",
      "type": "function",
      "constant": true
    },
    {
      "inputs": [],
      "name": "renounceOwnership",
      "outputs": [],
      "stateMutability": "nonpayable",
      "type": "function"
    },
    {
      "inputs": [],
      "name": "requiredDeposit",
      "outputs": [
        {
          "internalType": "uint256",
          "name": "",
          "type": "uint256"
        }
      ],
      "stateMutability": "view",
      "type": "function",
      "constant": true
    },
    {
      "inputs": [
        {
          "internalType": "address",
          "name": "newOwner",
          "type": "address"
        }
      ],
      "name": "transferOwnership",
      "outputs": [],
      "stateMutability": "nonpayable",
      "type": "function"
    },
    {
      "inputs": [
        {
          "internalType": "enum Role",
          "name": "_role",
          "type": "uint8"
        }
      ],
      "name": "joinPlatform",
      "outputs": [],
      "stateMutability": "payable",
      "type": "function",
      "payable": true
    },
    {
      "inputs": [],
      "name": "exitPlatform",
      "outputs": [],
      "stateMutability": "nonpayable",
      "type": "function"
    },
    {
      "inputs": [
        {
          "internalType": "enum Role",
          "name": "_role",
          "type": "uint8"
        }
      ],
      "name": "switchRole",
      "outputs": [
        {
          "internalType": "enum Role",
          "name": "",
          "type": "uint8"
        }
      ],
      "stateMutability": "nonpayable",
      "type": "function"
    },
    {
      "inputs": [
        {
          "internalType": "address",
          "name": "_address",
          "type": "address"
        }
      ],
      "name": "checkRole",
      "outputs": [
        {
          "internalType": "enum Role",
          "name": "",
          "type": "uint8"
        }
      ],
      "stateMutability": "view",
      "type": "function",
      "constant": true
    },
    {
      "inputs": [
        {
          "internalType": "string",
          "name": "_repo",
          "type": "string"
        },
        {
          "internalType": "string",
          "name": "_commitID",
          "type": "string"
        },
        {
          "internalType": "uint256",
          "name": "_days",
          "type": "uint256"
        }
      ],
      "name": "requestAudit",
      "outputs": [],
      "stateMutability": "payable",
      "type": "function",
      "payable": true
    },
    {
      "inputs": [
        {
          "internalType": "uint256",
          "name": "_id",
          "type": "uint256"
        }
      ],
      "name": "cancelAudit",
      "outputs": [],
      "stateMutability": "nonpayable",
      "type": "function"
    },
    {
      "inputs": [],
      "name": "withdraw",
      "outputs": [],
      "stateMutability": "nonpayable",
      "type": "function"
    },
    {
      "inputs": [],
      "name": "checkAuditsNumber",
      "outputs": [
        {
          "internalType": "uint256",
          "name": "",
          "type": "uint256"
        }
      ],
      "stateMutability": "view",
      "type": "function",
      "constant": true
    },
    {
      "inputs": [
        {
          "internalType": "uint256",
          "name": "_id",
          "type": "uint256"
        }
      ],
      "name": "checkAuditRepo",
      "outputs": [
        {
          "internalType": "string",
          "name": "",
          "type": "string"
        },
        {
          "internalType": "string",
          "name": "",
          "type": "string"
        }
      ],
      "stateMutability": "view",
      "type": "function",
      "constant": true
    },
    {
      "inputs": [
        {
          "internalType": "uint256",
          "name": "_id",
          "type": "uint256"
        }
      ],
      "name": "checkAuditDaysleft",
      "outputs": [
        {
          "internalType": "uint256",
          "name": "",
          "type": "uint256"
        }
      ],
      "stateMutability": "view",
      "type": "function",
      "constant": true
    },
    {
      "inputs": [
        {
          "internalType": "uint256",
          "name": "_id",
          "type": "uint256"
        }
      ],
      "name": "checkAuditPrize",
      "outputs": [
        {
          "internalType": "uint256",
          "name": "",
          "type": "uint256"
        }
      ],
      "stateMutability": "view",
      "type": "function",
      "constant": true
    },
    {
      "inputs": [
        {
          "internalType": "uint256",
          "name": "_id",
          "type": "uint256"
        }
      ],
      "name": "checkAuditPrincipal",
      "outputs": [
        {
          "internalType": "address",
          "name": "",
          "type": "address"
        }
      ],
      "stateMutability": "view",
      "type": "function",
      "constant": true
    },
    {
      "inputs": [
        {
          "internalType": "uint256",
          "name": "_id",
          "type": "uint256"
        }
      ],
      "name": "checkAuditStatus",
      "outputs": [
        {
          "internalType": "enum Status",
          "name": "",
          "type": "uint8"
        }
      ],
      "stateMutability": "view",
      "type": "function",
      "constant": true
    },
    {
      "inputs": [
        {
          "internalType": "uint256",
          "name": "_requiredDeposit",
          "type": "uint256"
        }
      ],
      "name": "changeRequiredDeposit",
      "outputs": [],
      "stateMutability": "nonpayable",
      "type": "function"
    },
    {
      "inputs": [
        {
          "internalType": "uint256",
          "name": "_minimalWage",
          "type": "uint256"
        }
      ],
      "name": "changeMinimumWage",
      "outputs": [],
      "stateMutability": "nonpayable",
      "type": "function"
    }
  ],
  "bytecode": "0x60806040523480156200001157600080fd5b5062000032620000266200007060201b60201c565b6200007860201b60201c565b60008060146101000a81548160ff021916908315150217905550670de0b6b3a7640000600581905550671bc16d674ec800006006819055506200013c565b600033905090565b60008060009054906101000a900473ffffffffffffffffffffffffffffffffffffffff169050816000806101000a81548173ffffffffffffffffffffffffffffffffffffffff021916908373ffffffffffffffffffffffffffffffffffffffff1602179055508173ffffffffffffffffffffffffffffffffffffffff168173ffffffffffffffffffffffffffffffffffffffff167f8be0079c531659141344cd1fd0a4f28419497f9722a3daafe3b4186f6b6457e060405160405180910390a35050565b612eac806200014c6000396000f3fe6080604052600436106101355760003560e01c80638da5cb5b116100ab578063d0c883471161006f578063d0c883471461042d578063edc8d25a14610449578063f2fde38b14610465578063f6e6fbb41461048e578063fb7cfdd7146104b9578063fd85269b146104e457610135565b80638da5cb5b146103085780639d272bdf14610333578063a0d7823e14610370578063b60e73db146103ad578063c910eedf146103f057610135565b806365a736ac116100fd57806365a736ac146101f7578063688cf6251461020e578063715018a61461024b57806378278d4d14610262578063858052a61461028d57806389657264146102ca57610135565b806311fc68791461013a5780631a80154114610163578063263428551461018c5780633ccfd60b146101b55780635c975abb146101cc575b600080fd5b34801561014657600080fd5b50610161600480360381019061015c91906122ba565b610521565b005b34801561016f57600080fd5b5061018a600480360381019061018591906122ba565b610805565b005b34801561019857600080fd5b506101b360048036038101906101ae91906122ba565b6108c4565b005b3480156101c157600080fd5b506101ca610983565b005b3480156101d857600080fd5b506101e1610c6b565b6040516101ee91906125d5565b60405180910390f35b34801561020357600080fd5b5061020c610c81565b005b34801561021a57600080fd5b50610235600480360381019061023091906122ba565b610f6f565b6040516102429190612874565b60405180910390f35b34801561025757600080fd5b50610260610f9e565b005b34801561026e57600080fd5b50610277611026565b6040516102849190612874565b60405180910390f35b34801561029957600080fd5b506102b460048036038101906102af91906122ba565b611037565b6040516102c1919061260b565b60405180910390f35b3480156102d657600080fd5b506102f160048036038101906102ec91906122ba565b611073565b6040516102ff92919061267d565b60405180910390f35b34801561031457600080fd5b5061031d6111e1565b60405161032a91906125ba565b60405180910390f35b34801561033f57600080fd5b5061035a600480360381019061035591906121f8565b61120a565b60405161036791906125f0565b60405180910390f35b34801561037c57600080fd5b50610397600480360381019061039291906121cb565b611445565b6040516103a491906125f0565b60405180910390f35b3480156103b957600080fd5b506103d460048036038101906103cf91906122ba565b61149b565b6040516103e7979695949392919061288f565b60405180910390f35b3480156103fc57600080fd5b50610417600480360381019061041291906122ba565b61162a565b60405161042491906125ba565b60405180910390f35b61044760048036038101906104429190612225565b611679565b005b610463600480360381019061045e91906121f8565b611a50565b005b34801561047157600080fd5b5061048c600480360381019061048791906121cb565b611e70565b005b34801561049a57600080fd5b506104a3611f68565b6040516104b09190612874565b60405180910390f35b3480156104c557600080fd5b506104ce611f6e565b6040516104db9190612874565b60405180910390f35b3480156104f057600080fd5b5061050b600480360381019061050691906122ba565b611f74565b6040516105189190612874565b60405180910390f35b6001600381111561053557610534612af2565b5b600360003373ffffffffffffffffffffffffffffffffffffffff1673ffffffffffffffffffffffffffffffffffffffff16815260200190815260200160002060009054906101000a900460ff16600381111561059457610593612af2565b5b146105d4576040517f08c379a00000000000000000000000000000000000000000000000000000000081526004016105cb90612754565b60405180910390fd5b3373ffffffffffffffffffffffffffffffffffffffff16600282815481106105ff576105fe612b50565b5b906000526020600020906006020160040160009054906101000a900473ffffffffffffffffffffffffffffffffffffffff1673ffffffffffffffffffffffffffffffffffffffff1614610687576040517f08c379a000000000000000000000000000000000000000000000000000000000815260040161067e906126d4565b60405180910390fd5b60098081111561069a57610699612af2565b5b600282815481106106ae576106ad612b50565b5b906000526020600020906006020160040160149054906101000a900460ff1660098111156106df576106de612af2565b5b14156106ea57600080fd5b600060096002838154811061070257610701612b50565b5b906000526020600020906006020160040160146101000a81548160ff0219169083600981111561073557610734612af2565b5b02179055506002828154811061074e5761074d612b50565b5b906000526020600020906006020160050154905060006002838154811061077857610777612b50565b5b9060005260206000209060060201600501819055503373ffffffffffffffffffffffffffffffffffffffff16827f7ed04abec162392c200fe374c6498af8dd7a0d837078575c7a1a63197fe5a8a7600285815481106107da576107d9612b50565b5b9060005260206000209060060201600501546040516107f99190612874565b60405180910390a35050565b61080d611fa3565b73ffffffffffffffffffffffffffffffffffffffff1661082b6111e1565b73ffffffffffffffffffffffffffffffffffffffff1614610881576040517f08c379a0000000000000000000000000000000000000000000000000000000008152600401610878906127d4565b60405180910390fd5b806006819055507f25addee16f90116a4541769a4234912a19ded186225d7e71482e47287f2d4df36006546040516108b99190612874565b60405180910390a150565b6108cc611fa3565b73ffffffffffffffffffffffffffffffffffffffff166108ea6111e1565b73ffffffffffffffffffffffffffffffffffffffff1614610940576040517f08c379a0000000000000000000000000000000000000000000000000000000008152600401610937906127d4565b60405180910390fd5b806005819055507f321783b4d49a1286813914595d0caf890fb7f57f04caf269e7188d7edf0e79db6005546040516109789190612874565b60405180910390a150565b6002600381111561099757610996612af2565b5b600360003373ffffffffffffffffffffffffffffffffffffffff1673ffffffffffffffffffffffffffffffffffffffff16815260200190815260200160002060009054906101000a900460ff1660038111156109f6576109f5612af2565b5b1480610a715750600380811115610a1057610a0f612af2565b5b600360003373ffffffffffffffffffffffffffffffffffffffff1673ffffffffffffffffffffffffffffffffffffffff16815260200190815260200160002060009054906101000a900460ff166003811115610a6f57610a6e612af2565b5b145b610ab0576040517f08c379a0000000000000000000000000000000000000000000000000000000008152600401610aa7906127f4565b60405180910390fd5b6000600460003373ffffffffffffffffffffffffffffffffffffffff1673ffffffffffffffffffffffffffffffffffffffff1681526020019081526020016000205411610b32576040517f08c379a0000000000000000000000000000000000000000000000000000000008152600401610b2990612714565b60405180910390fd5b6000600460003373ffffffffffffffffffffffffffffffffffffffff1673ffffffffffffffffffffffffffffffffffffffff1681526020019081526020016000205490506000600460003373ffffffffffffffffffffffffffffffffffffffff1673ffffffffffffffffffffffffffffffffffffffff1681526020019081526020016000208190555060003373ffffffffffffffffffffffffffffffffffffffff1682604051610be1906125a5565b60006040518083038185875af1925050503d8060008114610c1e576040519150601f19603f3d011682016040523d82523d6000602084013e610c23565b606091505b5050905080610c67576040517f08c379a0000000000000000000000000000000000000000000000000000000008152600401610c5e90612814565b60405180910390fd5b5050565b60008060149054906101000a900460ff16905090565b60006003811115610c9557610c94612af2565b5b600360003373ffffffffffffffffffffffffffffffffffffffff1673ffffffffffffffffffffffffffffffffffffffff16815260200190815260200160002060009054906101000a900460ff166003811115610cf457610cf3612af2565b5b1415610d35576040517f08c379a0000000000000000000000000000000000000000000000000000000008152600401610d2c906126f4565b60405180910390fd5b600080600360003373ffffffffffffffffffffffffffffffffffffffff1673ffffffffffffffffffffffffffffffffffffffff16815260200190815260200160002060006101000a81548160ff02191690836003811115610d9957610d98612af2565b5b0217905550600460003373ffffffffffffffffffffffffffffffffffffffff1673ffffffffffffffffffffffffffffffffffffffff1681526020019081526020016000205490506000600460003373ffffffffffffffffffffffffffffffffffffffff1673ffffffffffffffffffffffffffffffffffffffff168152602001908152602001600020819055503373ffffffffffffffffffffffffffffffffffffffff167f6ca867bd7dbfbe0ed4df9e1b6af381331ea2969f24b092cfb644487ee2af4a2e600360003373ffffffffffffffffffffffffffffffffffffffff1673ffffffffffffffffffffffffffffffffffffffff16815260200190815260200160002060009054906101000a900460ff16604051610eb791906125f0565b60405180910390a260003373ffffffffffffffffffffffffffffffffffffffff1682604051610ee5906125a5565b60006040518083038185875af1925050503d8060008114610f22576040519150601f19603f3d011682016040523d82523d6000602084013e610f27565b606091505b5050905080610f6b576040517f08c379a0000000000000000000000000000000000000000000000000000000008152600401610f6290612814565b60405180910390fd5b5050565b600060028281548110610f8557610f84612b50565b5b9060005260206000209060060201600501549050919050565b610fa6611fa3565b73ffffffffffffffffffffffffffffffffffffffff16610fc46111e1565b73ffffffffffffffffffffffffffffffffffffffff161461101a576040517f08c379a0000000000000000000000000000000000000000000000000000000008152600401611011906127d4565b60405180910390fd5b6110246000611fab565b565b6000611032600161206f565b905090565b60006002828154811061104d5761104c612b50565b5b906000526020600020906006020160040160149054906101000a900460ff169050919050565b6060806002838154811061108a57611089612b50565b5b9060005260206000209060060201600101600284815481106110af576110ae612b50565b5b90600052602060002090600602016002018180546110cc90612a91565b80601f01602080910402602001604051908101604052809291908181526020018280546110f890612a91565b80156111455780601f1061111a57610100808354040283529160200191611145565b820191906000526020600020905b81548152906001019060200180831161112857829003601f168201915b5050505050915080805461115890612a91565b80601f016020809104026020016040519081016040528092919081815260200182805461118490612a91565b80156111d15780601f106111a6576101008083540402835291602001916111d1565b820191906000526020600020905b8154815290600101906020018083116111b457829003601f168201915b5050505050905091509150915091565b60008060009054906101000a900473ffffffffffffffffffffffffffffffffffffffff16905090565b600080600381111561121f5761121e612af2565b5b600360003373ffffffffffffffffffffffffffffffffffffffff1673ffffffffffffffffffffffffffffffffffffffff16815260200190815260200160002060009054906101000a900460ff16600381111561127e5761127d612af2565b5b141580156112b157506000600381111561129b5761129a612af2565b5b8260038111156112ae576112ad612af2565b5b14155b6112f0576040517f08c379a00000000000000000000000000000000000000000000000000000000081526004016112e790612794565b60405180910390fd5b81600360003373ffffffffffffffffffffffffffffffffffffffff1673ffffffffffffffffffffffffffffffffffffffff16815260200190815260200160002060006101000a81548160ff0219169083600381111561135257611351612af2565b5b02179055503373ffffffffffffffffffffffffffffffffffffffff167f8afbad8ac3d2710e7451035a65460b127a29d7d0795166907d74bb45a542b9e4600360003373ffffffffffffffffffffffffffffffffffffffff1673ffffffffffffffffffffffffffffffffffffffff16815260200190815260200160002060009054906101000a900460ff166040516113e991906125f0565b60405180910390a2600360003373ffffffffffffffffffffffffffffffffffffffff1673ffffffffffffffffffffffffffffffffffffffff16815260200190815260200160002060009054906101000a900460ff169050919050565b6000600360008373ffffffffffffffffffffffffffffffffffffffff1673ffffffffffffffffffffffffffffffffffffffff16815260200190815260200160002060009054906101000a900460ff169050919050565b600281815481106114ab57600080fd5b90600052602060002090600602016000915090508060000154908060010180546114d490612a91565b80601f016020809104026020016040519081016040528092919081815260200182805461150090612a91565b801561154d5780601f106115225761010080835404028352916020019161154d565b820191906000526020600020905b81548152906001019060200180831161153057829003601f168201915b50505050509080600201805461156290612a91565b80601f016020809104026020016040519081016040528092919081815260200182805461158e90612a91565b80156115db5780601f106115b0576101008083540402835291602001916115db565b820191906000526020600020905b8154815290600101906020018083116115be57829003601f168201915b5050505050908060030154908060040160009054906101000a900473ffffffffffffffffffffffffffffffffffffffff16908060040160149054906101000a900460ff16908060050154905087565b6000600282815481106116405761163f612b50565b5b906000526020600020906006020160040160009054906101000a900473ffffffffffffffffffffffffffffffffffffffff169050919050565b611681610c6b565b156116c1576040517f08c379a00000000000000000000000000000000000000000000000000000000081526004016116b890612774565b60405180910390fd5b600160038111156116d5576116d4612af2565b5b600360003373ffffffffffffffffffffffffffffffffffffffff1673ffffffffffffffffffffffffffffffffffffffff16815260200190815260200160002060009054906101000a900460ff16600381111561173457611733612af2565b5b14611774576040517f08c379a000000000000000000000000000000000000000000000000000000000815260040161176b90612754565b60405180910390fd5b600881116117b7576040517f08c379a00000000000000000000000000000000000000000000000000000000081526004016117ae90612734565b60405180910390fd5b6006543410156117fc576040517f08c379a00000000000000000000000000000000000000000000000000000000081526004016117f390612834565b60405180910390fd5b60026040518060e00160405280600160000154815260200187878080601f016020809104026020016040519081016040528093929190818152602001838380828437600081840152601f19601f82011690508083019250505050505050815260200185858080601f016020809104026020016040519081016040528093929190818152602001838380828437600081840152601f19601f8201169050808301925050505050505081526020018381526020013373ffffffffffffffffffffffffffffffffffffffff168152602001600060098111156118de576118dd612af2565b5b8152602001348152509080600181540180825580915050600190039060005260206000209060060201600090919091909150600082015181600001556020820151816001019080519060200190611936929190612093565b506040820151816002019080519060200190611953929190612093565b506060820151816003015560808201518160040160006101000a81548173ffffffffffffffffffffffffffffffffffffffff021916908373ffffffffffffffffffffffffffffffffffffffff16021790555060a08201518160040160146101000a81548160ff021916908360098111156119d0576119cf612af2565b5b021790555060c0820151816005015550506119eb600161207d565b3373ffffffffffffffffffffffffffffffffffffffff166001600001547ff38a25d6dff03e60fb768e2b5a76eac80ee2c45f7ff77a28e7df0505f0878914878787878734604051611a4196959493929190612626565b60405180910390a35050505050565b611a58610c6b565b15611a98576040517f08c379a0000000000000000000000000000000000000000000000000000000008152600401611a8f90612774565b60405180910390fd5b60006003811115611aac57611aab612af2565b5b600360003373ffffffffffffffffffffffffffffffffffffffff1673ffffffffffffffffffffffffffffffffffffffff16815260200190815260200160002060009054906101000a900460ff166003811115611b0b57611b0a612af2565b5b148015611b3d575060006003811115611b2757611b26612af2565b5b816003811115611b3a57611b39612af2565b5b14155b611b7c576040517f08c379a0000000000000000000000000000000000000000000000000000000008152600401611b73906127b4565b60405180910390fd5b600554341015611bc1576040517f08c379a0000000000000000000000000000000000000000000000000000000008152600401611bb890612854565b60405180910390fd5b80600360003373ffffffffffffffffffffffffffffffffffffffff1673ffffffffffffffffffffffffffffffffffffffff16815260200190815260200160002060006101000a81548160ff02191690836003811115611c2357611c22612af2565b5b021790555034600460003373ffffffffffffffffffffffffffffffffffffffff1673ffffffffffffffffffffffffffffffffffffffff1681526020019081526020016000206000828254611c779190612933565b925050819055503373ffffffffffffffffffffffffffffffffffffffff167f1745a89b3324b491897811e54cb25c817b0100db7aef1bc3c3a00a9ebd54ae0b600360003373ffffffffffffffffffffffffffffffffffffffff1673ffffffffffffffffffffffffffffffffffffffff16815260200190815260200160002060009054906101000a900460ff16604051611d1091906125f0565b60405180910390a26000600554600460003373ffffffffffffffffffffffffffffffffffffffff1673ffffffffffffffffffffffffffffffffffffffff16815260200190815260200160002054611d679190612989565b1115611e6d576000600554600460003373ffffffffffffffffffffffffffffffffffffffff1673ffffffffffffffffffffffffffffffffffffffff16815260200190815260200160002054611dbc9190612989565b905060003373ffffffffffffffffffffffffffffffffffffffff1682604051611de4906125a5565b60006040518083038185875af1925050503d8060008114611e21576040519150601f19603f3d011682016040523d82523d6000602084013e611e26565b606091505b5050905080611e6a576040517f08c379a0000000000000000000000000000000000000000000000000000000008152600401611e6190612814565b60405180910390fd5b50505b50565b611e78611fa3565b73ffffffffffffffffffffffffffffffffffffffff16611e966111e1565b73ffffffffffffffffffffffffffffffffffffffff1614611eec576040517f08c379a0000000000000000000000000000000000000000000000000000000008152600401611ee3906127d4565b60405180910390fd5b600073ffffffffffffffffffffffffffffffffffffffff168173ffffffffffffffffffffffffffffffffffffffff161415611f5c576040517f08c379a0000000000000000000000000000000000000000000000000000000008152600401611f53906126b4565b60405180910390fd5b611f6581611fab565b50565b60065481565b60055481565b600060028281548110611f8a57611f89612b50565b5b9060005260206000209060060201600301549050919050565b600033905090565b60008060009054906101000a900473ffffffffffffffffffffffffffffffffffffffff169050816000806101000a81548173ffffffffffffffffffffffffffffffffffffffff021916908373ffffffffffffffffffffffffffffffffffffffff1602179055508173ffffffffffffffffffffffffffffffffffffffff168173ffffffffffffffffffffffffffffffffffffffff167f8be0079c531659141344cd1fd0a4f28419497f9722a3daafe3b4186f6b6457e060405160405180910390a35050565b600081600001549050919050565b6001816000016000828254019250508190555050565b82805461209f90612a91565b90600052602060002090601f0160209004810192826120c15760008555612108565b82601f106120da57805160ff1916838001178555612108565b82800160010185558215612108579182015b828111156121075782518255916020019190600101906120ec565b5b5090506121159190612119565b5090565b5b8082111561213257600081600090555060010161211a565b5090565b60008135905061214581612e38565b92915050565b60008135905061215a81612e4f565b92915050565b60008083601f84011261217657612175612b84565b5b8235905067ffffffffffffffff81111561219357612192612b7f565b5b6020830191508360018202830111156121af576121ae612b89565b5b9250929050565b6000813590506121c581612e5f565b92915050565b6000602082840312156121e1576121e0612b93565b5b60006121ef84828501612136565b91505092915050565b60006020828403121561220e5761220d612b93565b5b600061221c8482850161214b565b91505092915050565b60008060008060006060868803121561224157612240612b93565b5b600086013567ffffffffffffffff81111561225f5761225e612b8e565b5b61226b88828901612160565b9550955050602086013567ffffffffffffffff81111561228e5761228d612b8e565b5b61229a88828901612160565b935093505060406122ad888289016121b6565b9150509295509295909350565b6000602082840312156122d0576122cf612b93565b5b60006122de848285016121b6565b91505092915050565b6122f0816129bd565b82525050565b6122ff816129cf565b82525050565b61230e81612a2b565b82525050565b61231d81612a3d565b82525050565b600061232f8385612922565b935061233c838584612a4f565b61234583612b98565b840190509392505050565b600061235b8261290c565b6123658185612922565b9350612375818560208601612a5e565b61237e81612b98565b840191505092915050565b6000612396602683612922565b91506123a182612ba9565b604082019050919050565b60006123b9601b83612922565b91506123c482612bf8565b602082019050919050565b60006123dc602083612922565b91506123e782612c21565b602082019050919050565b60006123ff601483612922565b915061240a82612c4a565b602082019050919050565b6000612422601f83612922565b915061242d82612c73565b602082019050919050565b6000612445600d83612922565b915061245082612c9c565b602082019050919050565b6000612468601083612922565b915061247382612cc5565b602082019050919050565b600061248b601f83612922565b915061249682612cee565b602082019050919050565b60006124ae601383612922565b91506124b982612d17565b602082019050919050565b60006124d1602083612922565b91506124dc82612d40565b602082019050919050565b60006124f4601b83612922565b91506124ff82612d69565b602082019050919050565b6000612517601683612922565b915061252282612d92565b602082019050919050565b600061253a600083612917565b915061254582612dbb565b600082019050919050565b600061255d601583612922565b915061256882612dbe565b602082019050919050565b6000612580601a83612922565b915061258b82612de7565b602082019050919050565b61259f81612a21565b82525050565b60006125b08261252d565b9150819050919050565b60006020820190506125cf60008301846122e7565b92915050565b60006020820190506125ea60008301846122f6565b92915050565b60006020820190506126056000830184612305565b92915050565b60006020820190506126206000830184612314565b92915050565b6000608082019050818103600083015261264181888a612323565b90508181036020830152612656818688612323565b90506126656040830185612596565b6126726060830184612596565b979650505050505050565b600060408201905081810360008301526126978185612350565b905081810360208301526126ab8184612350565b90509392505050565b600060208201905081810360008301526126cd81612389565b9050919050565b600060208201905081810360008301526126ed816123ac565b9050919050565b6000602082019050818103600083015261270d816123cf565b9050919050565b6000602082019050818103600083015261272d816123f2565b9050919050565b6000602082019050818103600083015261274d81612415565b9050919050565b6000602082019050818103600083015261276d81612438565b9050919050565b6000602082019050818103600083015261278d8161245b565b9050919050565b600060208201905081810360008301526127ad8161247e565b9050919050565b600060208201905081810360008301526127cd816124a1565b9050919050565b600060208201905081810360008301526127ed816124c4565b9050919050565b6000602082019050818103600083015261280d816124e7565b9050919050565b6000602082019050818103600083015261282d8161250a565b9050919050565b6000602082019050818103600083015261284d81612550565b9050919050565b6000602082019050818103600083015261286d81612573565b9050919050565b60006020820190506128896000830184612596565b92915050565b600060e0820190506128a4600083018a612596565b81810360208301526128b68189612350565b905081810360408301526128ca8188612350565b90506128d96060830187612596565b6128e660808301866122e7565b6128f360a0830185612314565b61290060c0830184612596565b98975050505050505050565b600081519050919050565b600081905092915050565b600082825260208201905092915050565b600061293e82612a21565b915061294983612a21565b9250827fffffffffffffffffffffffffffffffffffffffffffffffffffffffffffffffff0382111561297e5761297d612ac3565b5b828201905092915050565b600061299482612a21565b915061299f83612a21565b9250828210156129b2576129b1612ac3565b5b828203905092915050565b60006129c882612a01565b9050919050565b60008115159050919050565b60008190506129e982612e10565b919050565b60008190506129fc82612e24565b919050565b600073ffffffffffffffffffffffffffffffffffffffff82169050919050565b6000819050919050565b6000612a36826129db565b9050919050565b6000612a48826129ee565b9050919050565b82818337600083830152505050565b60005b83811015612a7c578082015181840152602081019050612a61565b83811115612a8b576000848401525b50505050565b60006002820490506001821680612aa957607f821691505b60208210811415612abd57612abc612b21565b5b50919050565b7f4e487b7100000000000000000000000000000000000000000000000000000000600052601160045260246000fd5b7f4e487b7100000000000000000000000000000000000000000000000000000000600052602160045260246000fd5b7f4e487b7100000000000000000000000000000000000000000000000000000000600052602260045260246000fd5b7f4e487b7100000000000000000000000000000000000000000000000000000000600052603260045260246000fd5b600080fd5b600080fd5b600080fd5b600080fd5b600080fd5b6000601f19601f8301169050919050565b7f4f776e61626c653a206e6577206f776e657220697320746865207a65726f206160008201527f6464726573730000000000000000000000000000000000000000000000000000602082015250565b7f4e6f74207072696e636970616c206f6620746869732061756469740000000000600082015250565b7f5573657220646964206e6f74206a6f696e65642074686520706c617466726f6d600082015250565b7f4e6f2066756e647320746f207769746864726177000000000000000000000000600082015250565b7f41756469746f7273206e65656473206d6f7265207468616e2038206461797300600082015250565b7f4e6f74205072696e636970616c00000000000000000000000000000000000000600082015250565b7f5061757361626c653a2070617573656400000000000000000000000000000000600082015250565b7f5573657220646964206e6f74206a6f696e642074686520706c6174666f726d00600082015250565b7f5573657220616c7265616479206a6f696e656400000000000000000000000000600082015250565b7f4f776e61626c653a2063616c6c6572206973206e6f7420746865206f776e6572600082015250565b7f4e6f742041756469746f72206f72205175616c69747947756172640000000000600082015250565b7f4661696c656420746f2072657475726e20457468657200000000000000000000600082015250565b50565b7f53656e64206174206c6561737420312065746865720000000000000000000000600082015250565b7f4e6f7420656e6f7567682066756e647320776572652073656e64000000000000600082015250565b60048110612e2157612e20612af2565b5b50565b600a8110612e3557612e34612af2565b5b50565b612e41816129bd565b8114612e4c57600080fd5b50565b60048110612e5c57600080fd5b50565b612e6881612a21565b8114612e7357600080fd5b5056fea2646970667358221220a6fc588d7fb33e9bda4b5c796e4c7e6e3405a3b9f6b7a4fd3f11cf6e54342ee664736f6c63430008070033",
  "immutableReferences": {},
  "source": "// SPDX-License-Identifier: MIT\npragma solidity 0.8.7;\n\n///@title Tender contract for a decentralized audits.\n///@notice Current version cover only the first part of the process - joining the platform and requesting audits.\n\nimport \"@openzeppelin/contracts/access/Ownable.sol\";\nimport \"@openzeppelin/contracts/security/Pausable.sol\";\nimport \"@openzeppelin/contracts/utils/Counters.sol\";\nimport \"./Structs.sol\";\n\ncontract Tender is Ownable, Pausable{\n    using Counters for Counters.Counter;\n\n    Counters.Counter private _auditCounter;\n    Audit[] public audits;\n    mapping (address => Role) role;\n    mapping (address => uint) balances;\n    uint public requiredDeposit;\n    uint public minimalWage;\n\n///    \n///@notice MODIFIERS\n///\n\n    modifier OnlyPrincipal() {\n        require(role[msg.sender]==Role.Principal, \"Not Principal\");\n        _;\n    }\n    modifier OnlyAuditor() {\n        require(role[msg.sender]==Role.Auditor, \"Not Auditor\");\n        _;\n    }\n    modifier OnlyQualityGuard() {\n        require(role[msg.sender]==Role.QualityGuard, \"Not QualityGuard\");\n        _;\n    }\n\n///\n///@notice EVENTS\n///\n\nevent NewMember(address indexed member, Role _role);\nevent MemberLeft(address indexed member, Role _role);\nevent NewRole(address indexed member, Role _role);\nevent NewAudit(uint indexed _id, address indexed _principal, string _repo, string _commitID, uint _days, uint _prize);\nevent AuditCanceled(uint indexed _id, address indexed _principal, uint _prize);\nevent NewRequiredDeposit(uint _requiredDeposit);\nevent NewMinimalWage(uint _minimalWage);\n\nconstructor() {\n    requiredDeposit = 1 ether;\n    minimalWage = 2 ether;\n}\n\n///@notice Let users join platform and select one of the roles by locking eth.\n///@param _role allows to select one of the roles 1 - Principal, 2 - Auditor, 3 - QualityGuard.\nfunction joinPlatform(Role _role) payable public whenNotPaused {\n  require(role[msg.sender]==Role.None && _role != Role.None,\"User already joined\");\n  require(msg.value>=requiredDeposit, \"Not enough funds were send\");\n  role[msg.sender]=_role;\n  balances[msg.sender]+=msg.value;\n  emit NewMember(msg.sender,role[msg.sender]);\n  if(balances[msg.sender] - requiredDeposit > 0){\n    uint amount = balances[msg.sender] - requiredDeposit;\n    (bool sent,) = payable(msg.sender).call{value:amount}(\"\");\n    require(sent, \"Failed to return Ether\");\n  }\n\n}\n\n///@notice Let users exit platform and get back locked eth.\nfunction exitPlatform() external {\n  require(role[msg.sender]!=Role.None,\"User did not joined the platfrom\");\n  uint amount = 0;\n  role[msg.sender]=Role.None;\n  amount = balances[msg.sender];\n  balances[msg.sender]=0;\n  emit MemberLeft(msg.sender,role[msg.sender]);\n  (bool sent,) = payable(msg.sender).call{value:amount}(\"\");\n  require(sent, \"Failed to return Ether\");\n}\n\n///@notice Let users to change their current role to another.\n///@param _role allows to select one of the roles 1 - Principal, 2 - Auditor, 3 - QualityGuard.\n///@return Returns selected Role.\nfunction switchRole(Role _role) external returns(Role){\n    require(role[msg.sender]!=Role.None && _role != Role.None, \"User did not joind the platform\");\n    role[msg.sender]=_role;\n    emit NewRole(msg.sender,role[msg.sender]);\n    return role[msg.sender];\n}\n\n///@notice Let users check the current role of the _address.\nfunction checkRole(address _address) public view returns(Role){\n    return role[address(_address)];\n}\n\n///@notice Let Principal request for Audit for particular commitID and set a date by which the tests must end.\n///@param _repo URL address to the repository.\n///@param _commitID particular commitID for which tests should be done.\n///@param _days set date befere which tests should end.\nfunction requestAudit(string calldata _repo, string calldata _commitID, uint _days) public payable whenNotPaused OnlyPrincipal {\n    require(_days>8,\"Auditors needs more than 8 days\");\n    require(msg.value >= minimalWage, \"Send at least 1 ether\");\n    audits.push(Audit(_auditCounter._value, _repo, _commitID, _days, msg.sender, Status.NotStarted, msg.value));\n    _auditCounter.increment();\n    emit NewAudit(_auditCounter._value, msg.sender, _repo, _commitID, _days, msg.value);\n}\n\n///@notice Let Principal to cancel their specific audit request.\n///@param _id specifies audit that Principal want to cancel.\nfunction cancelAudit(uint _id) external OnlyPrincipal{\n    require(audits[_id].principal==msg.sender,\"Not principal of this audit\");\n    require(audits[_id].status!=Status.Canceled);\n    uint amount = 0;\n    audits[_id].status=Status.Canceled;\n    amount = audits[_id].prize;\n    audits[_id].prize = 0;\n    payable(msg.sender).call{value:amount};\n    emit AuditCanceled(_id, msg.sender, audits[_id].prize);\n}\n\n///@notice Let Auditor and QualityGuard to withdraw all eth they have (except amount needed to participate in the platfrom).\nfunction withdraw() external {\n    require(role[msg.sender]==Role.Auditor || role[msg.sender]==Role.QualityGuard, \"Not Auditor or QualityGuard\");\n    require(balances[msg.sender]>0, \"No funds to withdraw\");\n    uint amount = balances[msg.sender];\n    balances[msg.sender] = 0;\n    (bool sent,) = payable(msg.sender).call{value:amount}(\"\");\n    require(sent, \"Failed to return Ether\");\n}\n\n///@notice Get information how many audits were submitted so far.\nfunction checkAuditsNumber() public view returns (uint) {\n    return _auditCounter.current();\n}\n\n///@notice Get audit repository and commitID for indicated _id.\n///@param _id Determines a specific audit about which we want to receive information.\nfunction checkAuditRepo(uint _id) public view returns (string memory, string memory) {\n    return (audits[_id].repository,audits[_id].commitID);\n}\n\n///@notice Get information how many days left to the end for indicated _id.\n///@param _id Determines a specific audit about which we want to receive information.\nfunction checkAuditDaysleft(uint _id) public view returns (uint) {\n    return audits[_id].daysleft;\n}\n\n///@notice Get audit prize for indicated _id.\n///@param _id Determines a specific audit about which we want to receive information.\nfunction checkAuditPrize(uint _id) public view returns (uint) {\n    return audits[_id].prize;\n}\n\n///@notice Get audit Principal for indicated _id.\n///@param _id Determines a specific audit about which we want to receive information.\nfunction checkAuditPrincipal(uint _id) public view returns (address) {\n    return audits[_id].principal;\n}\n\n///@notice Get audit status for indicated _id.\n///@param _id Determines a specific audit about which we want to receive information.\nfunction checkAuditStatus(uint _id) public view returns (Status) {\n    return audits[_id].status;\n}\n\n///\n///@notice OWNER FUNCTIONS\n///\n\n///@notice Owner can change required deposit to join the platform.\n///@param _requiredDeposit new value\nfunction changeRequiredDeposit(uint _requiredDeposit) external onlyOwner {\n    requiredDeposit = _requiredDeposit;\n    emit NewRequiredDeposit(requiredDeposit);\n}\n\n///@notice Owner can change minimal wage required to request audit.\n///@param _minimalWage new value\nfunction changeMinimumWage(uint _minimalWage) external onlyOwner {\n    minimalWage = _minimalWage;\n    emit NewMinimalWage(minimalWage);\n}\n\n}\n\n\n\n\n\n\n\n\n",
  "sourcePath": "/home/kali/Desktop/WorkSpace/ConsensysBootCamp2021/FinalProject/blockchain-developer-bootcamp-final-project/contracts/Tender.sol",
  "compiler": {
    "name": "solc",
    "version": "0.8.7+commit.e28d00a7.Emscripten.clang"
  },
  "schemaVersion": "3.4.3",
  "updatedAt": "2021-11-27T13:36:01.389Z",
  "networkType": "ethereum",
  "devdoc": {
    "kind": "dev",
    "methods": {
      "cancelAudit(uint256)": {
        "params": {
          "_id": "specifies audit that Principal want to cancel."
        }
      },
      "changeMinimumWage(uint256)": {
        "params": {
          "_minimalWage": "new value"
        }
      },
      "changeRequiredDeposit(uint256)": {
        "params": {
          "_requiredDeposit": "new value"
        }
      },
      "checkAuditDaysleft(uint256)": {
        "params": {
          "_id": "Determines a specific audit about which we want to receive information."
        }
      },
      "checkAuditPrincipal(uint256)": {
        "params": {
          "_id": "Determines a specific audit about which we want to receive information."
        }
      },
      "checkAuditPrize(uint256)": {
        "params": {
          "_id": "Determines a specific audit about which we want to receive information."
        }
      },
      "checkAuditRepo(uint256)": {
        "params": {
          "_id": "Determines a specific audit about which we want to receive information."
        }
      },
      "checkAuditStatus(uint256)": {
        "params": {
          "_id": "Determines a specific audit about which we want to receive information."
        }
      },
      "joinPlatform(uint8)": {
        "params": {
          "_role": "allows to select one of the roles 1 - Principal, 2 - Auditor, 3 - QualityGuard."
        }
      },
      "owner()": {
        "details": "Returns the address of the current owner."
      },
      "paused()": {
        "details": "Returns true if the contract is paused, and false otherwise."
      },
      "renounceOwnership()": {
        "details": "Leaves the contract without owner. It will not be possible to call `onlyOwner` functions anymore. Can only be called by the current owner. NOTE: Renouncing ownership will leave the contract without an owner, thereby removing any functionality that is only available to the owner."
      },
      "requestAudit(string,string,uint256)": {
        "params": {
          "_commitID": "particular commitID for which tests should be done.",
          "_days": "set date befere which tests should end.",
          "_repo": "URL address to the repository."
        }
      },
      "switchRole(uint8)": {
        "params": {
          "_role": "allows to select one of the roles 1 - Principal, 2 - Auditor, 3 - QualityGuard."
        },
        "returns": {
          "_0": "Returns selected Role."
        }
      },
      "transferOwnership(address)": {
        "details": "Transfers ownership of the contract to a new account (`newOwner`). Can only be called by the current owner."
      }
    },
    "version": 1
  },
  "userdoc": {
    "events": {
      "NewMember(address,uint8)": {
        "notice": "EVENTS"
      }
    },
    "kind": "user",
    "methods": {
      "cancelAudit(uint256)": {
        "notice": "Let Principal to cancel their specific audit request."
      },
      "changeMinimumWage(uint256)": {
        "notice": "Owner can change minimal wage required to request audit."
      },
      "changeRequiredDeposit(uint256)": {
        "notice": "Owner can change required deposit to join the platform."
      },
      "checkAuditDaysleft(uint256)": {
        "notice": "Get information how many days left to the end for indicated _id."
      },
      "checkAuditPrincipal(uint256)": {
        "notice": "Get audit Principal for indicated _id."
      },
      "checkAuditPrize(uint256)": {
        "notice": "Get audit prize for indicated _id."
      },
      "checkAuditRepo(uint256)": {
        "notice": "Get audit repository and commitID for indicated _id."
      },
      "checkAuditStatus(uint256)": {
        "notice": "Get audit status for indicated _id."
      },
      "checkAuditsNumber()": {
        "notice": "Get information how many audits were submitted so far."
      },
      "checkRole(address)": {
        "notice": "Let users check the current role of the _address."
      },
      "exitPlatform()": {
        "notice": "Let users exit platform and get back locked eth."
      },
      "joinPlatform(uint8)": {
        "notice": "Let users join platform and select one of the roles by locking eth."
      },
      "requestAudit(string,string,uint256)": {
        "notice": "Let Principal request for Audit for particular commitID and set a date by which the tests must end."
      },
      "switchRole(uint8)": {
        "notice": "Let users to change their current role to another."
      },
      "withdraw()": {
        "notice": "Let Auditor and QualityGuard to withdraw all eth they have (except amount needed to participate in the platfrom)."
      }
    },
    "version": 1
  }
}